S01100004153475F315F44494F2E737265636D
S11300000C942A000C94A4010C944A010C947D01D4
S11300100C9403090C94DC080C9447000C944700DE
S11300200C9447000C9447000C9494070C94E5003E
S11300300C9447000C9447000C9447000C94470020
S11300400C9447000C9447000C9447000C94470010
S11300500C94470011241FBECFE5D8E0DEBFCDBF0E
S113006010E0A0E6B0E0E6E1F6E102C005900D92F2
S1130070AE36B107D9F720E0AEE6B0E001C01D927C
S1130080AD37B207E1F70E9449000C94090B0C94B8
S113009000000E94B4000E94BA0182E690E00E942F
S11300A02D0380E190E00E94920490E00E944303BB
S11300B00E94D402F0CF80E190E00E949204682F65
S11300C070E06F5F7F4F80E190E00E948A040895A2
S11300D080E190E00E949204682F70E06150710901
S11300E080E190E00E948A040895CF93C82F62E0D3
S11300F081E00E94BB0785E00E94B8086C2F82E073
S11301000E942A09CF910895811105C061E08DE113
S11301100E9400050895813021F460E08DE10E9481
S113012000050895811105C061E084E10E94000585
S11301300895813021F460E084E10E94000508956F
S1130140811105C061E085E10E94000508958130B8
S113015021F460E085E10E940005089581E00E9499
S11301601F040E946F04089561E08EE10E94B605A9
S113017061E08DE10E94B60561E08CE10E94B60564
S113018061E084E10E94B60561E085E10E94B60564
S11301900E94A2038FB780688FBF61E080E00E9455
S11301A0990463E081E00E94990463E082E00E9484
S11301B099040E94680466E080E00E94970684E047
S11301C00E9440070E94D80208951F920F920FB612
S11301D00F9211242F933F934F935F936F937F93C9
S11301E08F939F93AF93BF93EF93FF93809171008D
S11301F08D3389F40E94AE008093730080E190E017
S11302000E94920480937400809173000E94F3030F
S11302101092710003C08F5F80937100FF91EF9182
S1130220BF91AF919F918F917F916F915F914F910A
S11302303F912F910F900FBE0F901F9018959091A2
S1130240730080916100891720F480E00E9492007D
S1130250089581E00E94920008950E941F019091E8
S1130260730080916000891778F481E00E94840013
S113027080E00E94750080E00E94A00080917000E0
S11302808F5F80937000089581E00E94A000109217
S1130290700008951F920F920FB60F9211242F939E
S11302A03F934F935F936F937F938F939F93AF93FA
S11302B0BF93EF93FF9380916F00882341F0909157
S11302C0740080916100981710F40E945B00809183
S11302D06F008F5F80936F00FF91EF91BF91AF919B
S11302E09F918F917F916F915F914F913F912F914A
S11302F00F900FBE0F901F9018951F920F920FB67C
S11303000F9211242F933F934F935F936F937F9397
S11303108F939F93AF93BF93EF93FF938091740058
S113032081110E946800FF91EF91BF91AF919F915D
S11303308F917F916F915F914F913F912F910F908A
S11303400FBE0F901F9018951F920F920FB60F9229
S113035011248F9380917200811104C081E08093F5
S1130360720002C0109272008F910F900FBE0F9016
S11303701F901895CF930E942D01809172008111D6
S11303809EC08FE00E945C06811132C081E00E9411
S1130390840010926E0090917300809174009817FD
S11303A008F095C0C4E680917200811116C08FE0F8
S11303B00E945C06811111C08091730090917400B9
S11303C0891730F49C2F981B892F0E94750009C04F
S11303D089137DC00E94750004C080E00E947500EE
S11303E076C090917300809174009817E0F26FC00A
S11303F08FE00E945C06813009F069C080E00E94B1
S1130400750080916E00882361F02091730030E0C4
S11304108091740090E00596821793070CF446C00F
S11304204AC081E080936E009091730080917400C3
S11304308917C0F01CC08091720081110FC08FE039
S11304400E945C06813051F480E00E948400909107
S1130450730080917400891770F309C081E00E94D1
S1130460840005C080917200882349F3F7CF81E0AE
S11304700E9484002CC080917200811113C08FE00F
S11304800E945C06813071F480E00E948400209117
S1130490730030E08091740090E005968217930712
S11304A054F309C081E00E94840005C08091720069
S11304B0882329F3F7CF81E00E94840008C080E0FC
S11304C00E94750081E00E94840010926E00CF911A
S11304D00895CF93C82F84FB662760F984E00E94B7
S11304E00005C5FB662760F985E00E940005C6FB90
S11304F0662760F986E00E9400056C2F661F662758
S1130500661F87E00E94000561E08BE00E94000501
S11305108FE99FE00197F1F700C0000060E08BE0F5
S11305200E9400058FE99FE00197F1F700C00000E9
S11305306C2F617084E00E940005C1FB662760F99E
S113054085E00E940005C2FB662760F986E00E94F0
S11305500005C3FB662760F987E00E94000561E09F
S11305608BE00E9400058FE99FE00197F1F700C03E
S1130570000060E08BE00E9400058FE99FE0019796
S1130580F1F700C00000CF910895CF93C82F60E029
S113059088E00E94000560E089E00E9400058C2F3D
S11305A00E946902CF91089581E00E94C5020895D6
S11305B061E084E00E94B60561E085E00E94B60532
S11305C061E086E00E94B60561E087E00E94B6051E
S11305D061E088E00E94B60561E089E00E94B6050A
S11305E061E08BE00E94B60582E00E94C5022FEF15
S11305F080E792E0215080409040E1F700C0000085
S113060088E20E94C5028FE99FE00197F1F700C0DC
S113061000008EE00E94C5028FE99FE00197F1F788
S113062000C000000E94D4028FE19EE40197F1F71C
S113063000C0000086E00E94C5020895CF93C82F31
S113064061E088E00E94000560E089E00E94000506
S11306508C2F0E946902CF9108950F931F93CF931B
S1130660FC018081882359F08F01C0E00E941E03A1
S1130670CF5FF801EC0FF11D80818111F7CFCF918D
S11306801F910F9108951F93CF93DF93CDB7DEB7DA
S113069060970FB6F894DEBF0FBECDBFAC01892BB7
S11306A021F480E30E941E0343C010E001C01E2F0A
S11306B0E1E0F0E0EC0FFD1FE10FF11D9A01ADEC5C
S11306C0BCEC0E94E60A9695879596958795969533
S11306D087959C01220F331F880F991F880F991F3C
S11306E0880F991F820F931F9A01281B390BC90188
S11306F0805D8083E1E0E10F9A010E94E60AAC018B
S113070056954795569547955695479541155105E4
S113071071F611236CF0E1E0F0E0EC0FFD1FE10F46
S1130720F11D17FDFA9580810E941E0311509AF75E
S113073060960FB6F894DEBF0FBECDBFDF91CF91A8
S11307401F91089561E086E10E94B60561E087E1AA
S11307500E94B60561E080E10E94B60561E081E196
S11307600E94B60561E082E10E94B60561E083E182
S11307700E94B6050895CF93C82F611108C086E181
S11307800E94000561E087E10E9400050AC0613013
S113079041F460E087E10E94000561E086E10E9487
S11307A000056C2F617080E10E940005C1FB662783
S11307B060F981E10E940005C2FB662760F982E1CD
S11307C00E940005C3FB662760F983E10E940005CF
S11307D02FEF80E792E0215080409040E1F700C085
S11307E00000CF910895CF93CDEC8C9FC12D11249F
S11307F0C695C695C6952C2F220F922F990F990F47
S1130800920F60E0891B0E94BB0361E08C2F0E9461
S1130810BB03CF910895811103C03E983F9808957A
S1130820813019F43E9A3F980895823019F43E9825
S11308303F9A0895833011F43E9A3F9A0895369A68
S1130840811106C0389839983A983B983C9837C03B
S1130850813031F4389A39983A983B983C982FC0B3
S1130860823031F43898399A3A983B983C9827C0AA
S1130870833031F4389A399A3A983B983C981FC09F
S1130880843031F4389839983A9A3B983C9817C098
S1130890853031F4389A39983A9A3B983C980FC08D
S11308A0863031F43898399A3A9A3B983C9807C084
S11308B0873029F4389A399A3A9A3B983C98369971
S11308C0FECF84B195B10895309A319A329A089541
S11308D0379A81E00E940B040E9464040895BC01CD
S11308E080E090E00E94D7092AE038E240EA5BE326
S11308F00E94650A20E030E040EA50E40E94360994
S113090020E030E048EC52E40E94650A0E94A80905
S1130910CB010895E199FECF9FBB8EBB6DBBE29ADC
S1130920E19A0895E199FECF9FBB8EBBE09A8DB307
S113093008959FB790689FBF811128C08BB78064CA
S11309408BBF611107C085B78E7F85BF85B78D7F4B
S113095085BF0895613039F485B7816085BF85B757
S11309608D7F85BF0895623039F485B78E7F85BF4A
S113097085B7826085BF0895633009F040C085B7AC
S1130980816085BF85B7826085BF0895813039F560
S11309908BB780688BBF611107C085B78B7F85BF1C
S11309A085B7877F85BF0895613039F485B7846042
S11309B085BF85B7877F85BF0895623039F485B7D1
S11309C08B7F85BF85B7886085BF08956330B9F490
S11309D085B7846085BF85B7886085BF08958230F8
S11309E071F48BB780628BBF623021F484B78F7B44
S11309F084BF0895633019F484B7806484BF089574
S1130A00883030F5613089F49BB321E030E0082E62
S1130A1002C0220F331F0A94E2F7292B2BBB98EF55
S1130A20980F983008F090C019C0611111C09BB3A1
S1130A3021E030E0082E02C0220F331F0A94E2F7AF
S1130A40209529232BBB98EF980F9830D8F087C0B6
S1130A5098EF980F983040F5613091F448B321E055
S1130A6030E098EF980F02C0220F331F9A95E2F7F7
S1130A70242B28BB90EF980F983008F040C01AC080
S1130A80611168C098B321E030E048EF480F02C01C
S1130A90220F331F4A95E2F72095292328BB90EFB4
S1130AA0980F9830D0F02BC090EF980F983038F50D
S1130AB0613089F445B321E030E090EF980F02C033
S1130AC0220F331F9A95E2F7242B25BB98EE980F3B
S1130AD09830D8F00895611148C095B321E030E012
S1130AE040EF480F02C0220F331F4A95E2F72095CA
S1130AF0292325BB98EE980F9830B8F0089598EE06
S1130B00980F983090F5613071F442B3885121E028
S1130B1030E0B90102C0660F771F8A95E2F7CB0176
S1130B20842B82BB0895611120C042B3885121E017
S1130B3030E0B90102C0660F771F8A95E2F7CB0156
S1130B408095842382BB089590EF980F983008F421
S1130B50B1CFD5CF90EF980F983038F0D0CF90EF39
S1130B60980F983008F4B9CFCACF0895883018F593
S1130B70613081F49AB321E030E0082E02C0220FE4
S1130B80331F0A94E2F7292B2ABB98EF980F983069
S1130B90C0F086C09AB321E030E0082E02C0220FD4
S1130BA0331F0A94E2F7209529232ABB98EF980F64
S1130BB09830C0F07BC098EF980F983028F56130DA
S1130BC089F447B321E030E098EF980F02C0220F78
S1130BD0331F9A95E2F7242B27BB90EF980F983098
S1130BE0C8F03BC097B321E030E048EF480F02C0A3
S1130BF0220F331F4A95E2F72095292327BB90EF54
S1130C00980F9830C0F029C090EF980F983028F5CD
S1130C10613089F444B321E030E090EF980F02C0D2
S1130C20220F331F9A95E2F7242B24BB98EE980FDA
S1130C309830C8F0089594B321E030E040EF480FB5
S1130C4002C0220F331F4A95E2F72095292324BBC3
S1130C5098EE980F9830A8F0089598EE980F983071
S1130C6050F5613071F441B3885121E030E0B901AD
S1130C7002C0660F771F8A95E2F7CB01842B81BBF4
S1130C80089541B3885121E030E0B90102C0660FF4
S1130C90771F8A95E2F7CB018095842381BB089561
S1130CA090EF980F983008F4B5CFD7CF90EF980F06
S1130CB0983008F2D2CF0895883058F429B330E040
S1130CC0A90102C0559547958A95E2F7CA0181703A
S1130CD0089598EF980F983058F426B330E0A9019E
S1130CE002C0559547959A95E2F7CA018170089517
S1130CF090EF980F983058F423B330E0A90102C064
S1130D00559547959A95E2F7CA018170089598EE32
S1130D10980F983058F420B330E0A90102C05595DB
S1130D2047959A95E2F7CA018170089508959FB78F
S1130D3090689FBF81110AC083B78F7B83BF83B73D
S1130D40877F83BF89B7816089BF0895813069F542
S1130D5083B78F7783BF83B7806483BF83B7877F6D
S1130D6083BF611107C083B78F7E83BF83B78F7D35
S1130D7083BF0895623059F461E08BE00E94B605A8
S1130D8083B78F7E83BF83B7806283BF0895633048
S1130D9009F075C061E08BE00E94B60583B78061FD
S1130DA083BF83B7806283BF08958230D9F583B748
S1130DB0806883BF89B7826089BF83B78F7B83BF15
S1130DC083B7886083BF611107C083B78F7E83BFF9
S1130DD083B78F7D83BF0895613051F48BE00E9407
S1130DE0B60583B7806183BF83B78F7D83BF0895C2
S1130DF0623059F461E08BE00E94B60583B78F7EC0
S1130E0083BF83B7806283BF08956330C1F561E017
S1130E108BE00E94B60583B7806183BF83B780628D
S1130E2083BF0895833059F583B78F7783BF83B722
S1130E30806483BF83B7886083BF611107C083B7B1
S1130E408F7E83BF83B78F7D83BF0895623059F44B
S1130E5061E08BE00E94B60583B78F7E83BF83B7C2
S1130E60806283BF0895633051F461E08BE00E9497
S1130E70B60583B7806183BF83B7806283BF08955B
S1130E8081110AC083B7816083BF83B78D7F83BF1D
S1130E9083B78B7F83BF0895813051F483B78E7FEE
S1130EA083BF83B7826083BF83B78B7F83BF08957B
S1130EB0823051F483B7816083BF83B7826083BF7C
S1130EC083B78B7F83BF0895833051F483B78E7FBC
S1130ED083BF83B78D7F83BF83B7846083BF089547
S1130EE0843051F483B7816083BF83B78D7F83BF20
S1130EF083B7846083BF0895853051F483B78E7FB0
S1130F0083BF83B7826083BF83B7846083BF089540
S1130F10863049F483B7816083BF83B7826083BF1F
S1130F2083B7846083BF08951F920F920FB60F9208
S1130F3011242F933F934F935F936F937F938F93DA
S1130F409F93AF93BF93EF93FF93E0917500F0915C
S1130F5076000995FF91EF91BF91AF919F918F9189
S1130F607F916F915F914F913F912F910F900FBEA1
S1130F700F901F9018959FB790689FBF81110AC06A
S1130F8085B58F7B85BD85B5877F85BD89B7806431
S1130F9089BF0895813069F585B58F7785BD85B59D
S1130FA0806485BD85B5877F85BD611107C085B522
S1130FB08F7E85BD85B58F7D85BD0895623059F4DA
S1130FC061E08FE10E94B60585B58F7E85BD85B54C
S1130FD0806285BD0895633009F075C061E08FE1DA
S1130FE00E94B60585B5806185BD85B5806285BDE5
S1130FF008958230D9F585B5806885BD89B7806844
S113100089BF85B58F7B85BD85B5886085BD611138
S113101007C085B58F7E85BD85B58F7D85BD089557
S1131020613051F48FE10E94B60585B5806185BDBC
S113103085B58F7D85BD0895623059F461E08FE1F7
S11310400E94B60585B58F7E85BD85B5806285BD58
S113105008956330C1F561E08FE10E94B60585B55E
S1131060806185BD85B5806285BD0895833059F55D
S113107085B58F7785BD85B5806485BD85B5886068
S113108085BD611107C085B58F7E85BD85B58F7D12
S113109085BD0895623059F461E08FE10E94B60580
S11310A085B58F7E85BD85B5806285BD0895633025
S11310B051F461E08FE10E94B60585B5806185BD7C
S11310C085B5806285BD089581110AC085B58160AA
S11310D085BD85B58D7F85BD85B58B7F85BD08951F
S11310E0813051F485B58E7F85BD85B5826085BD1F
S11310F085B58B7F85BD0895823051F485B58160B7
S113110085BD85B5826085BD85B58B7F85BD089518
S1131110833051F485B58E7F85BD85B58D7F85BDC2
S113112085B5846085BD0895843051F483B78160AA
S113113083BF83B78D7F83BF83B7846083BF0895E4
S1131140853051F485B58E7F85BD85B5826085BDBA
S113115085B5846085BD0895863049F485B5816080
S113116085BD85B5826085BD85B5846085BD0895DE
S1131170811103C00E9464080895813019F40E940B
S113118064080895823019F40E9464080895833035
S113119019F40E9464080895843019F40E946408C4
S11311A00895853019F40E9464080895863019F46E
S11311B084E00E94640808951F920F920FB60F9264
S11311C011242F933F934F935F936F937F938F9348
S11311D09F93AF93BF93EF93FF93E0917B00F091C4
S11311E07C000995FF91EF91BF91AF919F918F91F1
S11311F07F916F915F914F913F912F910F900FBE0F
S11312000F901F9018951F920F920FB60F921124F2
S11312102F933F934F935F936F937F938F939F93FA
S1131220AF93BF93EF93FF93E0917900F0917A002D
S11312300995FF91EF91BF91AF919F918F917F910C
S11312406F915F914F913F912F910F900FBE0F902F
S11312501F901895823049F42FEF629FC00111242A
S113126064E670E00E94D20A63BD08950E944A09B0
S11312700C942B0A0E94240A58F00E941D0A40F084
S113128029F45F3F29F00C94140A51110C945F0A5D
S11312900C941A0A0E943C0A68F39923B1F355236B
S11312A091F3951B550BBB27AA2762177307840775
S11312B038F09F5F5F4F220F331F441FAA1FA9F30B
S11312C035D00E2E3AF0E0E832D091505040E695F9
S11312D0001CCAF72BD0FE2F29D0660F771F881F5A
S11312E0BB1F261737074807AB07B0E809F0BB0B4D
S11312F0802DBF01FF2793585F4F3AF09E3F510561
S113130078F00C94140A0C945F0A5F3FE4F3983E5F
S1131310D4F3869577956795B795F7959F5FC9F749
S1131320880F911D9695879597F90895E1E0660FCA
S1131330771F881FBB1F621773078407BA0720F043
S1131340621B730B840BBA0BEE1F88F7E0950895AC
S11313500E94440A88F09F5798F0B92F9927B751F3
S1131360B0F0E1F0660F771F881F991F1AF0BA9545
S1131370C9F714C0B13091F00E945E0AB1E008953B
S11313800C945E0A672F782F8827B85F39F0B93F2D
S1131390CCF3869577956795B395D9F73EF49095F8
S11313A08095709561957F4F8F4F9F4F0895E89476
S11313B009C097FB3EF490958095709561957F4F99
S11313C08F4F9F4F9923A9F0F92F96E9BB27939547
S11313D0F695879577956795B795F111F8CFFAF457
S11313E0BB0F11F460FF1BC06F5F7F4F8F4F9F4F88
S11313F016C0882311F096E911C0772321F09EE8E6
S1131400872F762F05C0662371F096E8862F70E04B
S113141060E02AF09A95660F771F881FDAF7880F25
S11314209695879597F9089597F99F6780E870E0F6
S113143060E008959FEF80EC089500240A94161646
S1131440170618060906089500240A9412161306AE
S1131450140605060895092E0394000C11F488233C
S113146052F0BB0F40F4BF2B11F460FF04C06F5F58
S11314707F4F8F4F9F4F089557FD9058440F551F2E
S113148059F05F3F71F04795880F97FB991F61F002
S11314909F3F79F087950895121613061406551F79
S11314A0F2CF4695F1DF08C0161617061806991FE5
S11314B0F1CF86957105610508940895E894BB27DA
S11314C066277727CB0197F908950E94780A0C9430
S11314D02B0A0E941D0A38F00E94240A20F095234A
S11314E011F00C94140A0C941A0A11240C945F0A37
S11314F00E943C0A70F3959FC1F3950F50E0551F6D
S1131500629FF001729FBB27F00DB11D639FAA2754
S1131510F00DB11DAA1F649F6627B00DA11D661FA3
S1131520829F2227B00DA11D621F739FB00DA11DC4
S1131530621F839FA00D611D221F749F3327A00D7E
S1131540611D231F849F600D211D822F762F6A2F1A
S113155011249F5750409AF0F1F088234AF0EE0F7F
S1131560FF1FBB1F661F771F881F91505040A9F7AC
S11315709E3F510580F00C94140A0C945F0A5F3F5F
S1131580E4F3983ED4F3869577956795B795F795E8
S1131590E7959F5FC1F7FE2B880F911D9695879560
S11315A097F9089597FB072E16F4009407D077FD5A
S11315B009D00E94F50A07FC05D03EF49095819568
S11315C09F4F0895709561957F4F0895A29FB00134
S11315D0B39FC001A39F700D811D1124911DB29F63
S11315E0700D811D1124911D0895AA1BBB1B51E18F
S11315F007C0AA1FBB1FA617B70710F0A61BB70B7F
S1131600881F991F5A95A9F780959095BC01CD0123
S10916100895F894FFCFD9
S11116165A4B54454D50204E45454445440022
S9030000FC
